:020000040800F2
:10000000384C0020F9010008F9120008B11100086D
:10001000F5120008450300087914000800000000EC
:100020000000000000000000000000005113000864
:1000300049030008000000000113000875130008C0
:10004000130200081302000813020008130200083C
:10005000130200081302000813020008130200082C
:10006000130200081302000813020008130200081C
:10007000130200081302000813020008130200080C
:1000800013020008130200081302000813020008FC
:1000900013020008130200081302000813020008EC
:1000A00013020008130200081302000813020008DC
:1000B00013020008130200081302000813020008CC
:1000C00013020008130200081302000813020008BC
:1000D00013020008130200081302000813020008AC
:1000E000130200081302000813020008130200089C
:1000F000130200081302000813020008130200088C
:10010000130200081302000813020008130200087B
:100110001302000813020008130200088D130008E0
:10012000130200081302000813020008130200085B
:1001300000F002F800F050F814A696E8000CB24463
:10014000B344DA4501D100F047F8BAE80F000FA632
:1001500096E83000A5EB040504EB0607AAEB0704BC
:10016000A7F101074FEA15154FEA3414A4F1010471
:10017000AC4201D300F030F813F0010F18BFFB1AA6
:1001800043F0010300F001F8DBE718475C1E0000B4
:100190007C1E0000103A24BF78C878C1FAD85207F4
:1001A00024BF30C830C144BF04680C6070470000F1
:1001B000704700000023002400250026103A28BFC5
:1001C00078C1FBD8520728BF30C148BF0B607047C9
:1001D0001FB51FBD10B510BD00F07AF81146FFF72E
:1001E000F7FF01F04BF900F098F803B4FFF7F2FFC6
:1001F00003BC00F09FF80000094880470948004709
:10020000FEE7FEE7FEE7FEE7FEE7FEE7FEE7FEE7C6
:10021000FEE7FEE704480549054A064B7047000023
:10022000891300083101000838460020384C0020AE
:1002300038480020384800204FF000020429C0F060
:10024000128010F0030C00F01B80CCF1040CBCF108
:10025000020F18BF00F8012BA8BF20F8022BA1EB5A
:100260000C0100F00DB85FEAC17C24BF00F8012B3F
:1002700000F8012B48BF00F8012B70474FF0000237
:1002800000B5134694469646203922BFA0E80C508C
:10029000A0E80C50B1F12001BFF4F7AF090728BF67
:1002A000A0E80C5048BF0CC05DF804EB890028BFE3
:1002B00040F8042B08BF704748BF20F8022B11F00C
:1002C000804F18BF00F8012B704770477047704788
:1002D000754600F02BF8AE4605006946534620F0FF
:1002E0000700854618B020B5FFF794FFBDE8204011
:1002F0004FF000064FF000074FF000084FF0000BE2
:10030000AC46ACE8C009ACE8C009ACE8C009ACE850
:10031000C00921F007018D46704710B50446AFF3C0
:1003200000802046BDE81040FFF75FBF00487047DF
:100330002000002001491820ABBEFEE72600020085
:1003400070470000FEE7000070470000EFF31080E8
:1003500072B600BFFEE70000F0B583B041F2B914F9
:1003600040F20805C0F60004C2F20005002602278C
:100370000BA120464FF400722B46CDE9007601F028
:10038000B3FB05F1080308A120464FF40072CDE944
:10039000007601F0A9FB03B0BDE8F04001F0F2BA2D
:1003A0004C454431000000004C4544320000000040
:1003B0002DE9F04F82B00E68002E00F0E980A0F128
:1003C000804241F6004540F20043A2F58432C4F277
:1003D00001050624C4F201034FEAB227A84208BF70
:1003E00005244FF0000E4FF001080F254FF0000AD2
:1003F0004FF0000B052F38BF4FEAB224009408E0FD
:100400000E680AF1010A36FA0AF20EF1040E00F043
:10041000BF8008FA0AFC16EA0C09F1D04E684FF6C4
:10042000FF72C1F21002964212DC122E56D8DFE89B
:1004300006F0350B4D49555555555555555555559E
:1004400055555545510000BFD1F80CB046E000BFEE
:100450004FF6FF72C1F2210296420FDC0022C1F278
:10046000110296421AD00022C1F21202964215D011
:100470000022C1F22102964210D02FE00022C1F2E8
:10048000220296420AD00022C1F23102964205D0E1
:100490000022C1F23202964220D100BF8A684AB1DE
:1004A000012A14BFC0F814C0C0F810C04FF0080BE8
:1004B00014E000BF4FF0040B10E000BFCA6802F167
:1004C000040B0BE04FF0000B08E000BFCA6802F11C
:1004D000080B03E0CA6802F10C0B00BF0246744629
:1004E000B9F5807F24BF0432203C166805FA04F772
:1004F00026EA07070BFA04F637431760CA79D206D3
:100500007FF57EAF41F21807C4F202073A684FF652
:10051000084542F001023A603A68CFF6FF7502F0F2
:1005200001020192019A2AF003021A440F2457593A
:100530000EF00C06B440A743009C04FA06F63743BD
:1005400057514E6840F20C44F2029A6854BF22EAB6
:10055000090242EA0902C4F201049A602268B70261
:1005600054BF22EA090242EA090222605A68B7032C
:1005700054BF22EA090242EA09025A600F251A68AA
:10058000F70354BF22EA090242EA09021A6037E778
:1005900002B0BDE8F08F0000C26802EA0103914397
:1005A00041EA034101617047002A08BF0904016163
:1005B0007047000044F23060C2F2000000687047EB
:1005C00040F2000044F23061C2F20000C2F20001C9
:1005D00000780A68104408607047000080B542F255
:1005E0000000C4F20200016841F010010160032024
:1005F00000F0C2F80F2000F005F800F05DF80020D0
:1006000080BD0000B0B586B041F21C01C4F2020109
:100610000A68044642F020020A60096801A801F055
:10062000200101910199694600F094F9049D002D83
:1006300018BF012500F0B0F94DF68361A840C4F25F
:100640001B31A0FB01014FF0FF3000EB914140F264
:10065000381041F20042C2F20000C4F2000240F23F
:10066000E7330025C0E90021C0E902530561856137
:1006700000F0BEFB10B106B0B0BD00BF40F23810B4
:10068000C2F2000000F0E4FB0028F4D1372000F0B3
:1006900035F80F2C0CD837202146002200F040F806
:1006A00040F204010020C2F200010C6006B0B0BDAF
:1006B000012006B0B0BD000082B041F21800C4F2C3
:1006C00002000168022241F001010160016801F0AD
:1006D000010101910199416841F0805141604068F8
:1006E00000F08050009000980420C4F201000168DE
:1006F00062F31A61016002B070470000002848BF31
:10070000704700F01F01012202FA01F11C2202EAE7
:10071000D0004EF20012CEF200028150704700006D
:1007200010B54EF60C5CCEF2000CDCF80030C3F3D2
:10073000022E8EF00704042C28BF0424BEF103030C
:100740004FF0FF3E0EFA04F438BF0023A143994056
:100750000EFA03F39A43114300F00F0200F16043D5
:100760000901043A03F564436244002848BF02F1DA
:100770000C03197010BD00004EF60C51CEF20001B2
:100780000A684FF6FF031A4060F30A2242F08060C5
:1007900040F0FD7008607047002804BF01207047DA
:1007A0002DE9F04381B042F20008C4F20208044689
:1007B000D8F800000D4600F0070081420CD9D8F8A7
:1007C000000020F007002843C8F80000D8F8000017
:1007D00000F00700A8426CD1206841F204098107AB
:1007E000C4F2020917D5410705D5D9F8001041F424
:1007F000E061C9F80010010705D5D9F8001041F4EF
:100800006051C9F80010D9F80010A26821F0F00179
:100810001143C9F80010C00742D1D8F8000000F019
:10082000070085420CD2D8F8000020F007002843CA
:10083000C8F80000D8F8000000F00700A84238D13E
:100840002068410707D5D9F80010E26821F4E0617B
:100850001143C9F80010000708D5D9F80000216934
:1008600020F4605040EAC100C9F80000D9F8002027
:1008700002F00C00082841F20020C0F27A004DD1AD
:1008800041F6D273C2F38341C0F60003595CD20330
:1008900038D440F60010C0F23D0048433EE000BFAF
:1008A000606859F8041C022808D0012826D1890361
:1008B00006D4012001B0BDE8F08300BF8901F8D55E
:1008C000D9F8001021F003010843C9F80000FFF730
:1008D00071FE064641F28837D9F80000616800F0E1
:1008E0000C00B0EB810F98D0FFF764FE801BB8427C
:1008F000F2D9032001B0BDE8F08300BF8907D8D545
:10090000DEE700BFD9F8002041F6D073C2F34042C1
:10091000C0F600039A5C4843B0FBF2F0D9F800102F
:1009200041F6B872C1F30311C0F60002515C40F207
:10093000180220FA01F140F20400C2F2000000683F
:10094000C2F200021160FFF75DFE002001B0BDE8B9
:10095000F08300000F22026041F20402C4F202029E
:10096000136803F003034360136803F0F00383602C
:10097000136803F4E063C36012684FF4E06303EAB2
:10098000D202026142F20000C4F20200006800F0EC
:10099000070008607047000040F2180041F20401AF
:1009A000C2F20000C4F202010068096841F6C87290
:1009B000C1F30221C0F60002515CC840704700003C
:1009C00040F2180041F20401C2F20000C4F2020138
:1009D0000068096841F6C872C1F3C221C0F600027E
:1009E000515CC84070470000002804BF01207047D8
:1009F0002DE9F04182B00446007841F20006C007BC
:100A0000C4F202060CD0706800F00C00042840F01C
:100A100081803068800303D56068002800F046813B
:100A2000207880071BD5706810F00C0F09D0706813
:100A300000F00C00082840F087807068C00300F1C7
:100A400083803068800703D52069012840F02E811B
:100A50003068616920F0F80040EAC1003060207819
:100A6000000713D4207840072CD4E569002D00F04E
:100A70001881706800F00C00082840F0A780012D54
:100A800040F00481012002B0BDE8F081A069002897
:100A900000F084800020C4F242200121C0F88014BC
:100AA000FFF788FD054600BF706A800700F1B2803D
:100AB000FFF780FD401B0228F6D9032002B0BDE8F5
:100AC000F08100BFF0695FEAC00808D4F06940F027
:100AD0008050F061F06900F080500090009847F27B
:100AE0000007C4F200073868C00549D4386840F4EC
:100AF00080703860FFF75EFD054600BF3868C005AE
:100B00003ED4FFF757FD401B6428F7D9032002B0FD
:100B1000BDE8F081706800F00C00082803D170680F
:100B2000C0033FF576AF61683068002900F00C81A2
:100B3000B1F5A02F00F00081B1F5803F40F01A819F
:100B400040F480301CE100BF2069002840F2000022
:100B5000C4F2422000F0888001210160FFF72AFDE5
:100B6000054600BF306880073FF572AFFFF722FDF2
:100B7000401B0228F6D9032002B0BDE8F08100BF77
:100B8000E168306A002900F09D80052900F092801C
:100B9000012940F0AF8040F00100B1E00020C4F234
:100BA00042200021C0F88014FFF704FD054600BF75
:100BB000706A80077FF556AFFFF7FCFC401B0228E8
:100BC000F6D9032002B0BDE8F08100BF0027C4F2CF
:100BD000422700203866FFF7EDFC022D05460DD1B7
:100BE0003068800140F1DE80FFF7E4FC401B022802
:100BF0004FF00300F4D902B0BDE8F0813068800105
:100C00004FD5FFF7D7FC401B02284FF00300F5D962
:100C1000F1E700BF40F21800C2F20000006844F69D
:100C2000D351C1F26201A0FB0101480A019000BF4B
:100C300000BF0198411E002801913FF413AF00BF8F
:100C40000198411E002801913FF40CAF00BF0198AC
:100C5000411E002801913FF405AF00BF0198411EDD
:100C600000280191E4D1FDE600210160FFF7A2FC1C
:100C7000054600BF306880077FF5F1AEFFF79AFCAC
:100C8000401B02284FF00300F4D9B4E77068216AD2
:100C900000F480328A4209D1616A00F470108842FF
:100CA00004D1002002B0BDE8F08100BF012002B0F5
:100CB000BDE8F08140F004003062306A40F001008D
:100CC0001EE000BF20F001003062306A20F0040016
:100CD0003062FFF76FFC054641F28837306A8007C3
:100CE00020D5FFF767FC401BB8424FF00300F5D951
:100CF00081E700BF20F001003062306A20F004007C
:100D00003062FFF757FC054641F28837306A8007AA
:100D100008D4FFF74FFC401BB842F7D9032002B0BC
:100D2000BDE8F081B8F1000F3FF59FAEF06920F00B
:100D30008050F06199E600BF40F480203060306858
:100D400040F480301CE000BF20F480303060306818
:100D500020F480203060FFF72DFC054630688003CA
:100D60007FF55EAEFFF726FC401B64284FF00300C2
:100D7000F4D940E720F480303060306820F48020DF
:100D80003060FFF717FC0546306880033FF548AE3A
:100D9000FFF710FC401B6428F6D9032002B0BDE821
:100DA000F08100BF206AB0F5803F05D17168A2686C
:100DB00021F40031114371607168626A21F4741189
:100DC00011430843706001203866FFF7F3FB0446C7
:100DD000306880013FF565AFFFF7ECFB001B022890
:100DE0004FF00300F4D906E7704700007047000099
:100DF000002804BF0120704710B5044690F83D005C
:100E000028B9002084F83C00204600F01FF802209A
:100E100084F83D002068211D00F0BEFA012084F80E
:100E2000460084F83E0084F83F0084F8400084F8CF
:100E3000410084F8420084F8430084F8440084F8B8
:100E4000450084F83D00002010BD00007047000000
:100E500090F83D1001291CBF01207047022180F845
:100E60003D10006840F6FF32C168C4F200029042B3
:100E700041F00101C1600FDCB0F1804F1ED040F2A3
:100E80000041C4F20001884218D040F60001C4F2CB
:100E90000001884212D018E040F60041C4F200017F
:100EA00088420BD043F20041C4F20101884205D0D0
:100EB00042F60041C4F20101884206D1816801F086
:100EC0000701062904BF00207047016841F00101B5
:100ED00001600020704700007047000070B50446B4
:100EE0000068C5680669B10716D515F0020113D070
:100EF0006FF002010161012121778069800703D031
:100F00002046FFF7E9FF05E0204600F08FF8204675
:100F100000F08EF800202077700719D515F0040036
:100F200016D020686FF004010161022121778069E9
:100F300010F4407F04D02046FFF7CEFF06E000BF4C
:100F4000204600F073F8204600F072F80020207769
:100F5000300717D515F0080014D020686FF008018D
:100F6000016104212177C069800703D02046FFF783
:100F7000B3FF05E0204600F059F8204600F058F88D
:100F800000202077F00619D515F0100016D0206843
:100F90006FF01001016108212177C06910F4407FD2
:100FA00004D02046FFF798FF06E000BF204600F07F
:100FB0003DF8204600F03CF800202077F00718BFED
:100FC00015F0010002D1300609D412E020686FF05C
:100FD00001010161204600F02DF8300609D515F019
:100FE000800006D020686FF0800101612046FFF785
:100FF000FBFE700609D515F0400006D020686FF0A2
:1010000040010161204600F01FF8B00658BF70BDD6
:1010100015F0200008D021686FF0200220460A61F8
:10102000BDE87040FFF7E2BE70BD000070470000F1
:1010300070470000006841F20041C4F2000188429C
:1010400018BF7047FFF7BCBA70470000002804BF04
:101050000120704710B5044690F8410028B90020DF
:1010600084F84000204600F063F8242084F8410012
:101070002068D4E90212C36823F40053C3600369F3
:1010800023F440531A430261D4E904231143C26894
:10109000194341F20C639A431143C1604169A2694B
:1010A00021F44071114343F60002C4F20102904260
:1010B000416103D0FFF770FC02E000BFFFF780FC46
:1010C000D4E90023192148439900B0FBF1F048F21C
:1010D0001F5CC5F2EB1CA0FB0C314FF69C73490959
:1010E000C0F6FF7301FB0300322303EB0010A0FBEB
:1010F0000C03F02000EA531000EB0110C3F343117E
:10110000084490601069202120F4904010615069DB
:1011100020F02A005061D06840F40050D0600020D8
:10112000606484F8411084F84210606310BD0000D0
:1011300070B586B040F60004C4F20104006804F5FE
:101140004051002688420596CDE90366029601D0FB
:1011500006B070BD41F21800C4F20200016802AD91
:1011600041F480410160016801F4804101910199DD
:10117000016841F0040101600068294600F00400A4
:10118000019001984FF40070029002200390032018
:1011900005902046FFF70CF94FF48060CDE9020678
:1011A000204629460496FFF703F906B070BD0000FB
:1011B000FEE70000FFF7F0B9044600BF2068A188F1
:1011C000FFF7F8FF4FF4FA7000F08EFBF6E700002F
:1011D0002DE9F04786B04FF0000A41F21800CDE942
:1011E00004AACDE902AAC4F20200016841F6000493
:1011F00041F0100101600168C4F2010401F0100126
:10120000019101990168A4F5406541F080010160F8
:101210000168012201F080010191019901684FF0FC
:10122000200841F00401016001684FF0010901F05C
:10123000040101910199016841F008010160016810
:1012400001F0080101910199016841F0400101603C
:101250000068202100F04000019001982846FFF727
:10126000A3F9204620210122FFF79EF9182002AEA3
:10127000CDE9020A20463146CDF81090FFF798F8E4
:101280000420CDE9020A0227204631460497FFF7E1
:101290008FF802A880E80007284631460597FFF737
:1012A00087F802A880E80007204631460597FFF737
:1012B0007FF806B0BDE8F08780B540F2801043F6B5
:1012C0000001C2F20000C4F2010100234FF00C0C37
:1012D0004FF4E13280E80E00C0E90333C0E905C3F2
:1012E000C361FFF7B3FE002808BF80BDBDE88040A2
:1012F000FFF72CB8FEE70000FEE70000000000004A
:10130000EFF30980BFF36F8F0D4B1A6820E9F00FE0
:1013100010602DE908404FF0BF0080F3118800F005
:101320006DFB4FF0000080F31188BDE8084019689C
:101330000868B0E8F00F80F30988BFF36F8F70473B
:10134000C8010020000000000000000000000000B4
:10135000074B19680868B0E8F00F80F30988BFF3FD
:101360006F8F4FF0000080F311884EF00D0E704724
:10137000C801002080B500F0C9FC012808BF80BD6D
:10138000BDE8804000F098BB7047000040F2381084
:10139000C2F20000FFF7A2BD10B540F6FF320368AD
:1013A000C4F2000240F6004E43F2004C9042C4F2F8
:1013B000000EC4F2010C21DCB0F1804F28D040F2C5
:1013C0000044C4F20004A04222D040F60004C4F25B
:1013D0000004A0421CD0904220DCB0F1804F27D006
:1013E00040F20042C4F20002904221D040F60002D6
:1013F000C4F2000290421BD01EE000BF704507D02F
:10140000604505D042F60044C4F20104A042E2D196
:101410004C6823F0700323439042DEDD704507D013
:10142000604505D042F60042C4F20102904203D169
:10143000CA6823F4407313434C6923F08002D1F847
:1014400000E08B68224360450260C362C0F828E078
:1014500005D042F60042C4F20102904201D109696E
:101460000163012141610169C90708BF10BD01691C
:1014700021F00101016110BDFEE7000090B0FFF70F
:10148000ADF800240120CDE90B44CDE909440690D4
:101490000A904FF4E0104FF4803102250F9006A817
:1014A000CDE90714CDE90D51FFF79EFA20B1EFF316
:1014B000108072B6FEE700BF0F20CDE901054FF4A2
:1014C0008060CDE9040401A802210394FFF764F9C8
:1014D00020B1EFF3108072B6FEE700BFFFF778FE91
:1014E000FFF7EAFEFEF738FFFEE7000040F29C053A
:1014F00040F2CC164EF60458C2F20005C2F20006C5
:10150000CEF200084FF0805715E000BF00F062F9FE
:10151000686CC468201D00F00BF928690138286147
:10152000E8680138E86000F065F9206B00F070F9B8
:10153000204600F06DF9E8680028E7D130680228FD
:10154000F9D3C8F80070BFF34F8FBFF36F8FF2E786
:1015500006480068006880F3088862B661B6BFF389
:101560004F8FBFF36F8F00DF00BF000008ED00E07A
:1015700081B0002000904FF0BF0080F31188BFF3CE
:101580006F8FBFF34F8F00BF009830B9009820B91C
:10159000009810B900980028F6D001B070470000FC
:1015A000F0B581B000F10805092D01D200250AE04F
:1015B00010F0070107D009398D429ABF20F00700CB
:1015C00000F11005002500F011FA40F2800CC2F283
:1015D000000CDCF800205AB1DCF804E0012D4FF0DB
:1015E000000428DA00F054FC204601B0F0BD00BF32
:1015F00040F23020C2F20000420700F5884200F1BC
:10160000070122F0070218BF21F007000021A2F114
:101610000803CCE90501CCF8003042E90211DCF8FE
:101620000020A3EB000EC0E9002ECCE901EE012D55
:101630004FF00004D6DB7545D4D8604650F8141F2F
:101640004C68AC422ED20B68C3B10E465C68AC420B
:101650001AD21F68C7B17C68AC421BD23868C8B1C7
:101660004468AC421CD20668D6B17468AC4245D21C
:1016700033683146002BE9D114E000BF0CF11400AF
:10168000914211D13DE000BF1946304691420BD145
:1016900037E000BF39461846914205D131E000BF1E
:1016A0000146384691422CD002680B68641B102C0E
:1016B000036007D94E197460DCF804E04B510660F2
:1016C00001E000BF4D6802F10804DCF80820AEEB31
:1016D00005009042CCF8040038BFCCF8080045F073
:1016E00000400022C1E90020DCF80C000130CCF8F9
:1016F0000C0000F0CDFB204601B0F0BD3146914218
:10170000D2D1002400F0C4FB204601B0F0BD00009F
:10171000034641F27150C0F600004FF0807C21F08A
:10172000010103E90310A3F1400043F8202C7047A6
:101730000169D0E90132D1F804C09A608445536050
:1017400008BF4A600B6800220261581E086070479B
:101750004FF0FF31024642F8081F0021C0E9032282
:10176000C0E90012704700000021016170470000CD
:1017700010B5D1F800C01CF1010213D000F108042B
:1017800062681368634511D853681C68644511D8B2
:101790005A68146864450FD854682368A6466345A0
:1017A000EED90BE00269D2F804E007E09646224643
:1017B00004E000BF9E4601E096461A46C1F804E0E8
:1017C000CEF808108A60516002680861511C0160FF
:1017D00010BD00004FF0BF0080F31188BFF36F8F82
:1017E000BFF34F8F40F21C00C2F2000001680131CC
:1017F0000160704740F21C00C2F20000016801392C
:10180000016018BF7047002080F311887047000006
:10181000B0B520B150F8041CB1F1FF3F00DDB0BD00
:10182000A0F108042268002A18BFB0BD21F00041D1
:1018300040F8041C054600F0D9F840F2800CC2F2D2
:10184000000C55F8041CDCF804000CF114020844E8
:10185000CCF804001068A0420AD20268A24213D257
:101860001068A04204D202680346A242F2D301E00B
:101870001346024658681D18A5420AD060189042C7
:101880000DD0104613E000BF034658681D18A5424E
:10189000F4D101441C46596060189042F1D1DCF843
:1018A0000000824203D0D2E9000211446160A342E9
:1018B000206018BF1C60DCF810000130CCF810006C
:1018C000BDE8B04000F0E4BA4EF21000CEF20000E5
:1018D00000210160816041F63F11C0F201014160C9
:1018E00007210160704700002DE9F04381B0D8B3B3
:1018F00040F29C07C2F200070446B86940F2C816DD
:101900000130B861C2F200067D69D7F82C80D7F8A3
:10191000309030680430FFF70BFF40B93068012188
:10192000C06A3A6801FA00F022EA000038603068C4
:1019300064194460306800F1040107D34846FFF79A
:1019400017FF00F0A5FA58B90EE000BF4046FFF7B8
:101950000FFF386A844238BF3C6200F099FA18B130
:1019600001B0BDE8F08300BF4EF60450CEF2000097
:101970004FF080510160BFF34F8FBFF36F8F01B005
:10198000BDE8F08370B586B044F24940C4F24C50D3
:1019900040F29C050290C2F2000541F2ED400026A3
:1019A00005F12404C0F6000002A9802200238DF86E
:1019B0000C60CDE9006400F097F801280FD14FF0DA
:1019C000BF0080F31188BFF36F8FBFF34F8F4FF0CD
:1019D000FF3028620120A8606E6100F03BF841F6FC
:1019E000E470C0F60000006806B070BD40F29C00D4
:1019F000C2F20000816901318161704740F29C00B0
:101A0000C2F20000816900291EBF0121C161704737
:101A10000021C1610068B0FA80F0C0B2C0F11F00BF
:101A200040F2CC1100EB8000C2F2000101EB80001B
:101A3000416800F1080249689142416001D1C168E2
:101A40004160C86840F2C811C2F20001086008682D
:101A50007047000010B582B04EF62050CEF2000064
:101A60000168002441F47F010160016841F07F4179
:101A7000016040F8044CFFF727FF40F21C00C2F25F
:101A800000000460FFF764FDFFF7B8FF01944FF01A
:101A9000BF0080F31188BFF36F8FBFF34F8F00BF7C
:101AA000019830B9019820B9019810B9019800281F
:101AB000F6D0002002B010BD80B54FF0BF0080F31B
:101AC0001188BFF36F8FBFF34F8F00F02FF930B144
:101AD0004EF60450CEF200004FF08051016000201D
:101AE00080F3118880BD00002DE9F04F81B082465F
:101AF0009000994615460F46FFF752FD002800F06A
:101B00009A8006464C20FFF74BFD002800F090809D
:101B1000DDF828B04C210446FEF78EFB06EB85006D
:101B20000438002F20F00708266342D0387884F864
:101B30003400D8B3787884F83500B8B3B87884F82E
:101B4000360098B3F87884F8370078B3387984F899
:101B5000380058B3787984F8390038B3B87984F804
:101B60003A0018B3F87984F83B00F8B1387A84F871
:101B70003C00D8B1787A84F83D00B8B1B87A84F8DE
:101B80003E0098B1F87A84F83F0078B1387B84F849
:101B9000400058B1787B84F8410038B1B87B84F8B4
:101BA000420000281CBFF87B84F84300002084F822
:101BB0004300271D3846BBF1040F28BF4FF0040B2C
:101BC000C4F82CB0FFF7D0FD04F11800FFF7CCFDEE
:101BD000CBF10500A061404651464A46246164624B
:101BE000FFF796FD0B992060002918BF0C60FFF7E6
:101BF000F1FD40F29C06C2F20006306940F2C81ABC
:101C000001303061C2F2000ADAF8000040F2CC156F
:101C1000C2F20005A0B1B068002845D1DAF8000092
:101C2000E16AC06A884298BFCAF800403CE000BF41
:101C30003046FFF7EDFD4FF0FF3001B0BDE8F08F0B
:101C4000CAF80040306901282ED12846FFF780FDF0
:101C500005F11400FFF77CFD05F12800FFF778FD82
:101C600005F13C00FFF774FD05F15000FFF770FD32
:101C700040F21018C2F200084046FFF769FD08F173
:101C800014094846FFF764FD06F16000FFF760FDA8
:101C900006F13800FFF75CFD06F14C00FFF758FD38
:101CA000C6F82C80C6F83090306871680122013186
:101CB0007160E16A8A401043306001EB810005EBFE
:101CC00080014A6861619368C4E90223976055F80E
:101CD00020205F60511C45F82010FFF78BFDB06895
:101CE00080B1DAF80000E16AC06A88420AD24EF692
:101CF0000450CEF200004FF080510160BFF34F8FCF
:101D0000BFF36F8F012001B0BDE8F08F40F29C005F
:101D1000C2F20000816800290FBF01208069B0FA7B
:101D200080F0400918BF4000704700002DE9F04FD7
:101D300040F29C0BC2F2000BDBF8180040B1DBF85C
:101D400028000130CBF828000020BDE8F08F00BF4C
:101D5000DBF8140010F10109CBF814901AD3DBF86A
:101D60002C00DBF83030CBF82C30CBF83000DBF82F
:101D700034000130CBF83400DBF82C00006828B1C7
:101D8000DBF82C00C068006802E000BF4FF0FF30B5
:101D9000CBF82000DBF8200040F2C81C40F2CC1A3F
:101DA0008145C2F2000CC2F2000A01D200205DE0BF
:101DB000DBF82C004FF0000E006800284ED04FF0EA
:101DC0000108002022E000BFE96ADBF8002008FAE1
:101DD00001F31A43CBF8002001EB81020AEB8203E6
:101DE0005C686B61A768C5E90247A6605AF82240A3
:101DF0007E60631C4AF82230DCF80020D26ADBF8EF
:101E00002C30914288BF0120196859B3DBF82C406F
:101E1000E468E5682E4656F8044FA14524D36C6962
:101E2000D5E9022763689760B3427A6008BF6760AC
:101E30002268AF6A013A002F2260C5D0D5E9073485
:101E4000796805F118029C609142636008BF7C606C
:101E50003968C5F828E001393960B5E74FF0FF343B
:101E6000002001E04FF0FF34CBF82040DCF80010F8
:101E7000C96A01EB81015AF82110012988BF0120AC
:101E8000DBF81C10002918BF0120BDE8F08F00000E
:101E90002DE9F04381B0FFF79DFC40F29C04C2F2B3
:101EA0000004A0690138A061A06938B10024FFF7DF
:101EB000A1FC204601B0BDE8F08300BF20690028E6
:101EC000F4D0206E40F2C8180028C2F2000850D0AA
:101ED00040F2CC194FF0000C4FF0010EC2F2000995
:101EE000E36EDB689F6AD3E90715786803F118068B
:101EF000B0428D60696008BF7D603868C3F828C053
:101F0000013838605F69D3E9021678681D1DA84260
:101F10008E60716008BF7E60386801383860D86AAA
:101F200021680EFA00F63143216000EB800109EBD5
:101F3000810677685E61BA68C3E90272556059F834
:101F40002120BD60013249F82120D8F80010C96A6B
:101F5000884288BFC4F81CE0206E0028C0D1E06A27
:101F6000006818B1E06AC068006801E04FF0FF3017
:101F70002062A56A4DB10127FFF7D8FE002818BFDF
:101F8000E761013DF8D10020A062E06900288DD012
:101F9000D8F800004EF60450CEF200004FF0805109
:101FA0000160BFF34F8F0124BFF36F8FFFF722FC57
:101FB000204601B0BDE8F0830000000000000000F2
:101FC00001020304060708090000000001020304DF
:101FD000010202030405060708090A0B0C0D0E0F87
:101FE000101000000400000008200008000000207D
:101FF0002000000094010008282000082000002094
:10200000184C0000B401000801000000100000009E
:10201000000C0140200000000018014020000000DA
:0820200000127A00AAAAAAAA84
:0400000508000131BD
:00000001FF
